{
  "_format": "hh-sol-artifact-1",
  "contractName": "DecentraVote",
  "sourceName": "contracts/DecentraVote.sol",
  "abi": [
    {
      "inputs": [
        {
          "internalType": "bytes32",
          "name": "_topic",
          "type": "bytes32"
        },
        {
          "internalType": "bytes32[]",
          "name": "proposalNames",
          "type": "bytes32[]"
        },
        {
          "internalType": "uint256",
          "name": "_votingStartTime",
          "type": "uint256"
        },
        {
          "internalType": "uint256",
          "name": "_votingEndTime",
          "type": "uint256"
        }
      ],
      "stateMutability": "nonpayable",
      "type": "constructor"
    },
    {
      "inputs": [],
      "name": "ReentrancyGuardReentrantCall",
      "type": "error"
    },
    {
      "anonymous": false,
      "inputs": [
        {
          "indexed": false,
          "internalType": "bytes32",
          "name": "name",
          "type": "bytes32"
        }
      ],
      "name": "ProposalCreated",
      "type": "event"
    },
    {
      "anonymous": false,
      "inputs": [
        {
          "indexed": false,
          "internalType": "address",
          "name": "voter",
          "type": "address"
        },
        {
          "indexed": false,
          "internalType": "uint256",
          "name": "proposalIndex",
          "type": "uint256"
        }
      ],
      "name": "VoteCasted",
      "type": "event"
    },
    {
      "anonymous": false,
      "inputs": [
        {
          "indexed": false,
          "internalType": "address",
          "name": "voter",
          "type": "address"
        }
      ],
      "name": "VoterRegistered",
      "type": "event"
    },
    {
      "inputs": [
        {
          "internalType": "bytes32",
          "name": "_name",
          "type": "bytes32"
        }
      ],
      "name": "addProposal",
      "outputs": [],
      "stateMutability": "nonpayable",
      "type": "function"
    },
    {
      "inputs": [],
      "name": "admin",
      "outputs": [
        {
          "internalType": "address",
          "name": "",
          "type": "address"
        }
      ],
      "stateMutability": "view",
      "type": "function"
    },
    {
      "inputs": [
        {
          "internalType": "address[]",
          "name": "_voters",
          "type": "address[]"
        }
      ],
      "name": "batchRegisterVoters",
      "outputs": [],
      "stateMutability": "nonpayable",
      "type": "function"
    },
    {
      "inputs": [
        {
          "internalType": "uint256",
          "name": "_proposalIndex",
          "type": "uint256"
        }
      ],
      "name": "castVote",
      "outputs": [],
      "stateMutability": "nonpayable",
      "type": "function"
    },
    {
      "inputs": [],
      "name": "getAllProposals",
      "outputs": [
        {
          "internalType": "bytes32[]",
          "name": "names",
          "type": "bytes32[]"
        },
        {
          "internalType": "uint256[]",
          "name": "voteCounts",
          "type": "uint256[]"
        }
      ],
      "stateMutability": "view",
      "type": "function"
    },
    {
      "inputs": [],
      "name": "getProposalCount",
      "outputs": [
        {
          "internalType": "uint256",
          "name": "",
          "type": "uint256"
        }
      ],
      "stateMutability": "view",
      "type": "function"
    },
    {
      "inputs": [],
      "name": "getTimeUntilVotingEnds",
      "outputs": [
        {
          "internalType": "uint256",
          "name": "",
          "type": "uint256"
        }
      ],
      "stateMutability": "view",
      "type": "function"
    },
    {
      "inputs": [],
      "name": "getTimeUntilVotingStarts",
      "outputs": [
        {
          "internalType": "uint256",
          "name": "",
          "type": "uint256"
        }
      ],
      "stateMutability": "view",
      "type": "function"
    },
    {
      "inputs": [
        {
          "internalType": "address",
          "name": "_voter",
          "type": "address"
        }
      ],
      "name": "getVoterInfo",
      "outputs": [
        {
          "internalType": "bool",
          "name": "isRegistered",
          "type": "bool"
        },
        {
          "internalType": "bool",
          "name": "hasVoted",
          "type": "bool"
        },
        {
          "internalType": "uint256",
          "name": "voteIndex",
          "type": "uint256"
        }
      ],
      "stateMutability": "view",
      "type": "function"
    },
    {
      "inputs": [],
      "name": "getVotingStats",
      "outputs": [
        {
          "internalType": "uint256",
          "name": "totalVotes",
          "type": "uint256"
        },
        {
          "internalType": "uint256",
          "name": "registeredVoters",
          "type": "uint256"
        },
        {
          "internalType": "bool",
          "name": "votingActive",
          "type": "bool"
        }
      ],
      "stateMutability": "view",
      "type": "function"
    },
    {
      "inputs": [],
      "name": "isVotingActive",
      "outputs": [
        {
          "internalType": "bool",
          "name": "",
          "type": "bool"
        }
      ],
      "stateMutability": "view",
      "type": "function"
    },
    {
      "inputs": [
        {
          "internalType": "uint256",
          "name": "",
          "type": "uint256"
        }
      ],
      "name": "proposals",
      "outputs": [
        {
          "internalType": "bytes32",
          "name": "name",
          "type": "bytes32"
        },
        {
          "internalType": "uint256",
          "name": "voteCount",
          "type": "uint256"
        }
      ],
      "stateMutability": "view",
      "type": "function"
    },
    {
      "inputs": [
        {
          "internalType": "address",
          "name": "_voter",
          "type": "address"
        }
      ],
      "name": "registerVoter",
      "outputs": [],
      "stateMutability": "nonpayable",
      "type": "function"
    },
    {
      "inputs": [],
      "name": "topic",
      "outputs": [
        {
          "internalType": "bytes32",
          "name": "",
          "type": "bytes32"
        }
      ],
      "stateMutability": "view",
      "type": "function"
    },
    {
      "inputs": [],
      "name": "totalRegisteredVoters",
      "outputs": [
        {
          "internalType": "uint256",
          "name": "",
          "type": "uint256"
        }
      ],
      "stateMutability": "view",
      "type": "function"
    },
    {
      "inputs": [
        {
          "internalType": "address",
          "name": "",
          "type": "address"
        }
      ],
      "name": "voters",
      "outputs": [
        {
          "internalType": "bool",
          "name": "isRegistered",
          "type": "bool"
        },
        {
          "internalType": "bool",
          "name": "hasVoted",
          "type": "bool"
        },
        {
          "internalType": "uint256",
          "name": "voteIndex",
          "type": "uint256"
        }
      ],
      "stateMutability": "view",
      "type": "function"
    },
    {
      "inputs": [],
      "name": "votingEndTime",
      "outputs": [
        {
          "internalType": "uint256",
          "name": "",
          "type": "uint256"
        }
      ],
      "stateMutability": "view",
      "type": "function"
    },
    {
      "inputs": [],
      "name": "votingStartTime",
      "outputs": [
        {
          "internalType": "uint256",
          "name": "",
          "type": "uint256"
        }
      ],
      "stateMutability": "view",
      "type": "function"
    },
    {
      "inputs": [],
      "name": "winnerName",
      "outputs": [
        {
          "internalType": "bytes32",
          "name": "",
          "type": "bytes32"
        }
      ],
      "stateMutability": "view",
      "type": "function"
    },
    {
      "inputs": [],
      "name": "winningProposal",
      "outputs": [
        {
          "internalType": "uint256",
          "name": "winningIndex",
          "type": "uint256"
        }
      ],
      "stateMutability": "view",
      "type": "function"
    }
  ],
  "bytecode": "0x608060405234801561001057600080fd5b5060405161205438038061205483398181016040528101906100329190610390565b600160008190555081811161007c576040517f08c379a000000000000000000000000000000000000000000000000000000000815260040161007390610496565b60405180910390fd5b33600160006101000a81548173ffffffffffffffffffffffffffffffffffffffff021916908373ffffffffffffffffffffffffffffffffffffffff16021790555083600281905550816003819055508060048190555060005b83518110156101ad57600560405180604001604052808684815181106100fe576100fd6104b6565b5b6020026020010151815260200160008152509080600181540180825580915050600190039060005260206000209060020201600090919091909150600082015181600001556020820151816001015550507f288a29bca04edb18fcdb2c76d6e3b03b8a137c85c70d1a4cb8aacfa868d60510848281518110610183576101826104b6565b5b602002602001015160405161019891906104f4565b60405180910390a180806001019150506100d5565b505050505061050f565b6000604051905090565b600080fd5b600080fd5b6000819050919050565b6101de816101cb565b81146101e957600080fd5b50565b6000815190506101fb816101d5565b92915050565b600080fd5b6000601f19601f8301169050919050565b7f4e487b7100000000000000000000000000000000000000000000000000000000600052604160045260246000fd5b61024f82610206565b810181811067ffffffffffffffff8211171561026e5761026d610217565b5b80604052505050565b60006102816101b7565b905061028d8282610246565b919050565b600067ffffffffffffffff8211156102ad576102ac610217565b5b602082029050602081019050919050565b600080fd5b60006102d66102d184610292565b610277565b905080838252602082019050602084028301858111156102f9576102f86102be565b5b835b81811015610322578061030e88826101ec565b8452602084019350506020810190506102fb565b5050509392505050565b600082601f83011261034157610340610201565b5b81516103518482602086016102c3565b91505092915050565b6000819050919050565b61036d8161035a565b811461037857600080fd5b50565b60008151905061038a81610364565b92915050565b600080600080608085870312156103aa576103a96101c1565b5b60006103b8878288016101ec565b945050602085015167ffffffffffffffff8111156103d9576103d86101c6565b5b6103e58782880161032c565b93505060406103f68782880161037b565b92505060606104078782880161037b565b91505092959194509250565b600082825260208201905092915050565b7f456e642074696d65206d7573742062652061667465722073746172742074696d60008201527f6500000000000000000000000000000000000000000000000000000000000000602082015250565b6000610480602183610413565b915061048b82610424565b604082019050919050565b600060208201905081810360008301526104af81610473565b9050919050565b7f4e487b7100000000000000000000000000000000000000000000000000000000600052603260045260246000fd5b6104ee816101cb565b82525050565b600060208201905061050960008301846104e5565b92915050565b611b368061051e6000396000f3fe608060405234801561001057600080fd5b506004361061012b5760003560e01c806376804a03116100ad578063bf63a57711610071578063bf63a57714610327578063c08cc02d14610345578063cceb68f514610363578063e2ba53f014610382578063f851a440146103a05761012b565b806376804a031461026957806389cac540146102895780639ed1f255146102a5578063a3ec138d146102d7578063be5702f3146103095761012b565b806338db6dd3116100f457806338db6dd3146101d75780633eb76b9c146101f357806347cf6f761461020f5780635a4ea59e1461022d578063609ff1bd1461024b5761012b565b8062aa746414610130578063013cf08b1461014e57806306efe3b01461017f5780631ea736e01461019b5780632019a608146101b9575b600080fd5b6101386103be565b60405161014591906110eb565b60405180910390f35b6101686004803603810190610163919061113c565b6103c4565b604051610176929190611182565b60405180910390f35b610199600480360381019061019491906111d7565b6103f8565b005b6101a361055d565b6040516101b091906110eb565b60405180910390f35b6101c1610563565b6040516101ce91906110eb565b60405180910390f35b6101f160048036038101906101ec9190611262565b610569565b005b61020d6004803603810190610208919061113c565b610736565b005b610217610a4f565b60405161022491906112aa565b60405180910390f35b610235610a6a565b60405161024291906110eb565b60405180910390f35b610253610a92565b60405161026091906110eb565b60405180910390f35b610271610b14565b604051610280939291906112c5565b60405180910390f35b6102a3600480360381019061029e9190611361565b610b87565b005b6102bf60048036038101906102ba9190611262565b610dab565b6040516102ce939291906113ae565b60405180910390f35b6102f160048036038101906102ec9190611262565b610e5a565b604051610300939291906113ae565b60405180910390f35b610311610e9e565b60405161031e91906110eb565b60405180910390f35b61032f610ec6565b60405161033c91906113e5565b60405180910390f35b61034d610ecc565b60405161035a91906110eb565b60405180910390f35b61036b610ed9565b60405161037992919061157c565b60405180910390f35b61038a611028565b60405161039791906113e5565b60405180910390f35b6103a861105c565b6040516103b591906115c2565b60405180910390f35b60075481565b600581815481106103d457600080fd5b90600052602060002090600202016000915090508060000154908060010154905082565b600160009054906101000a900473ffffffffffffffffffffffffffffffffffffffff1673ffffffffffffffffffffffffffffffffffffffff163373ffffffffffffffffffffffffffffffffffffffff1614610488576040517f08c379a000000000000000000000000000000000000000000000000000000000815260040161047f90611660565b60405180910390fd5b60035442106104cc576040517f08c379a00000000000000000000000000000000000000000000000000000000081526004016104c3906116f2565b60405180910390fd5b6005604051806040016040528083815260200160008152509080600181540180825580915050600190039060005260206000209060020201600090919091909150600082015181600001556020820151816001015550507f288a29bca04edb18fcdb2c76d6e3b03b8a137c85c70d1a4cb8aacfa868d605108160405161055291906113e5565b60405180910390a150565b60045481565b60035481565b600160009054906101000a900473ffffffffffffffffffffffffffffffffffffffff1673ffffffffffffffffffffffffffffffffffffffff163373ffffffffffffffffffffffffffffffffffffffff16146105f9576040517f08c379a00000000000000000000000000000000000000000000000000000000081526004016105f090611660565b60405180910390fd5b600660008273ffffffffffffffffffffffffffffffffffffffff1673ffffffffffffffffffffffffffffffffffffffff16815260200190815260200160002060000160009054906101000a900460ff1615610689576040517f08c379a00000000000000000000000000000000000000000000000000000000081526004016106809061175e565b60405180910390fd5b6001600660008373ffffffffffffffffffffffffffffffffffffffff1673ffffffffffffffffffffffffffffffffffffffff16815260200190815260200160002060000160006101000a81548160ff021916908315150217905550600760008154809291906106f7906117ad565b91905055507fb6be2187d059cc2a55fe29e0e503b566e1e0f8c8780096e185429350acffd3dd8160405161072b91906115c2565b60405180910390a150565b600660003373ffffffffffffffffffffffffffffffffffffffff1673ffffffffffffffffffffffffffffffffffffffff16815260200190815260200160002060000160009054906101000a900460ff166107c5576040517f08c379a00000000000000000000000000000000000000000000000000000000081526004016107bc90611841565b60405180910390fd5b60035442101561080a576040517f08c379a0000000000000000000000000000000000000000000000000000000008152600401610801906118ad565b60405180910390fd5b60045442111561084f576040517f08c379a000000000000000000000000000000000000000000000000000000000815260040161084690611919565b60405180910390fd5b610857611082565b600660003373ffffffffffffffffffffffffffffffffffffffff1673ffffffffffffffffffffffffffffffffffffffff16815260200190815260200160002060000160019054906101000a900460ff16156108e7576040517f08c379a00000000000000000000000000000000000000000000000000000000081526004016108de90611985565b60405180910390fd5b600580549050811061092e576040517f08c379a0000000000000000000000000000000000000000000000000000000008152600401610925906119f1565b60405180910390fd5b6001600660003373ffffffffffffffffffffffffffffffffffffffff1673ffffffffffffffffffffffffffffffffffffffff16815260200190815260200160002060000160016101000a81548160ff02191690831515021790555080600660003373ffffffffffffffffffffffffffffffffffffffff1673ffffffffffffffffffffffffffffffffffffffff16815260200190815260200160002060010181905550600581815481106109e4576109e3611a11565b5b90600052602060002090600202016001016000815480929190610a06906117ad565b91905055507fd0e6c39f2e086dc49f1524b47725526a56945cd1ff661f37976f1725a1e569863382604051610a3c929190611a40565b60405180910390a1610a4c6110c8565b50565b60006003544210158015610a6557506004544211155b905090565b60006004544210610a7e5760009050610a8f565b42600454610a8c9190611a69565b90505b90565b6000806000905060005b600580549050811015610b0f578160058281548110610abe57610abd611a11565b5b9060005260206000209060020201600101541115610b025760058181548110610aea57610ae9611a11565b5b90600052602060002090600202016001015491508092505b8080600101915050610a9c565b505090565b6000806000806000905060005b600580549050811015610b6e5760058181548110610b4257610b41611a11565b5b90600052602060002090600202016001015482610b5f9190611a9d565b91508080600101915050610b21565b5080600754610b7b610a4f565b93509350935050909192565b600160009054906101000a900473ffffffffffffffffffffffffffffffffffffffff1673ffffffffffffffffffffffffffffffffffffffff163373ffffffffffffffffffffffffffffffffffffffff1614610c17576040517f08c379a0000000000000000000000000000000000000000000000000000000008152600401610c0e90611660565b60405180910390fd5b60005b82829050811015610da65760066000848484818110610c3c57610c3b611a11565b5b9050602002016020810190610c519190611262565b73ffffffffffffffffffffffffffffffffffffffff1673ffffffffffffffffffffffffffffffffffffffff16815260200190815260200160002060000160009054906101000a900460ff16610d9957600160066000858585818110610cb957610cb8611a11565b5b9050602002016020810190610cce9190611262565b73ffffffffffffffffffffffffffffffffffffffff1673ffffffffffffffffffffffffffffffffffffffff16815260200190815260200160002060000160006101000a81548160ff02191690831515021790555060076000815480929190610d35906117ad565b91905055507fb6be2187d059cc2a55fe29e0e503b566e1e0f8c8780096e185429350acffd3dd838383818110610d6e57610d6d611a11565b5b9050602002016020810190610d839190611262565b604051610d9091906115c2565b60405180910390a15b8080600101915050610c1a565b505050565b600080600080600660008673ffffffffffffffffffffffffffffffffffffffff1673ffffffffffffffffffffffffffffffffffffffff1681526020019081526020016000206040518060600160405290816000820160009054906101000a900460ff161515151581526020016000820160019054906101000a900460ff161515151581526020016001820154815250509050806000015181602001518260400151935093509350509193909250565b60066020528060005260406000206000915090508060000160009054906101000a900460ff16908060000160019054906101000a900460ff16908060010154905083565b60006003544210610eb25760009050610ec3565b42600354610ec09190611a69565b90505b90565b60025481565b6000600580549050905090565b60608060058054905067ffffffffffffffff811115610efb57610efa611ad1565b5b604051908082528060200260200182016040528015610f295781602001602082028036833780820191505090505b50915060058054905067ffffffffffffffff811115610f4b57610f4a611ad1565b5b604051908082528060200260200182016040528015610f795781602001602082028036833780820191505090505b50905060005b6005805490508110156110235760058181548110610fa057610f9f611a11565b5b906000526020600020906002020160000154838281518110610fc557610fc4611a11565b5b60200260200101818152505060058181548110610fe557610fe4611a11565b5b90600052602060002090600202016001015482828151811061100a57611009611a11565b5b6020026020010181815250508080600101915050610f7f565b509091565b60006005611034610a92565b8154811061104557611044611a11565b5b906000526020600020906002020160000154905090565b600160009054906101000a900473ffffffffffffffffffffffffffffffffffffffff1681565b6002600054036110be576040517f3ee5aeb500000000000000000000000000000000000000000000000000000000815260040160405180910390fd5b6002600081905550565b6001600081905550565b6000819050919050565b6110e5816110d2565b82525050565b600060208201905061110060008301846110dc565b92915050565b600080fd5b600080fd5b611119816110d2565b811461112457600080fd5b50565b60008135905061113681611110565b92915050565b60006020828403121561115257611151611106565b5b600061116084828501611127565b91505092915050565b6000819050919050565b61117c81611169565b82525050565b60006040820190506111976000830185611173565b6111a460208301846110dc565b9392505050565b6111b481611169565b81146111bf57600080fd5b50565b6000813590506111d1816111ab565b92915050565b6000602082840312156111ed576111ec611106565b5b60006111fb848285016111c2565b91505092915050565b600073ffffffffffffffffffffffffffffffffffffffff82169050919050565b600061122f82611204565b9050919050565b61123f81611224565b811461124a57600080fd5b50565b60008135905061125c81611236565b92915050565b60006020828403121561127857611277611106565b5b60006112868482850161124d565b91505092915050565b60008115159050919050565b6112a48161128f565b82525050565b60006020820190506112bf600083018461129b565b92915050565b60006060820190506112da60008301866110dc565b6112e760208301856110dc565b6112f4604083018461129b565b949350505050565b600080fd5b600080fd5b600080fd5b60008083601f840112611321576113206112fc565b5b8235905067ffffffffffffffff81111561133e5761133d611301565b5b60208301915083602082028301111561135a57611359611306565b5b9250929050565b6000806020838503121561137857611377611106565b5b600083013567ffffffffffffffff8111156113965761139561110b565b5b6113a28582860161130b565b92509250509250929050565b60006060820190506113c3600083018661129b565b6113d0602083018561129b565b6113dd60408301846110dc565b949350505050565b60006020820190506113fa6000830184611173565b92915050565b600081519050919050565b600082825260208201905092915050565b6000819050602082019050919050565b61143581611169565b82525050565b6000611447838361142c565b60208301905092915050565b6000602082019050919050565b600061146b82611400565b611475818561140b565b93506114808361141c565b8060005b838110156114b1578151611498888261143b565b97506114a383611453565b925050600181019050611484565b5085935050505092915050565b600081519050919050565b600082825260208201905092915050565b6000819050602082019050919050565b6114f3816110d2565b82525050565b600061150583836114ea565b60208301905092915050565b6000602082019050919050565b6000611529826114be565b61153381856114c9565b935061153e836114da565b8060005b8381101561156f57815161155688826114f9565b975061156183611511565b925050600181019050611542565b5085935050505092915050565b600060408201905081810360008301526115968185611460565b905081810360208301526115aa818461151e565b90509392505050565b6115bc81611224565b82525050565b60006020820190506115d760008301846115b3565b92915050565b600082825260208201905092915050565b7f4f6e6c792061646d696e2063616e2063616c6c20746869732066756e6374696f60008201527f6e00000000000000000000000000000000000000000000000000000000000000602082015250565b600061164a6021836115dd565b9150611655826115ee565b604082019050919050565b600060208201905081810360008301526116798161163d565b9050919050565b7f43616e6e6f74206164642070726f706f73616c20616674657220766f74696e6760008201527f2068617320737461727465640000000000000000000000000000000000000000602082015250565b60006116dc602c836115dd565b91506116e782611680565b604082019050919050565b6000602082019050818103600083015261170b816116cf565b9050919050565b7f566f74657220616c726561647920726567697374657265640000000000000000600082015250565b60006117486018836115dd565b915061175382611712565b602082019050919050565b600060208201905081810360008301526117778161173b565b9050919050565b7f4e487b7100000000000000000000000000000000000000000000000000000000600052601160045260246000fd5b60006117b8826110d2565b91507fffffffffffffffffffffffffffffffffffffffffffffffffffffffffffffffff82036117ea576117e961177e565b5b600182019050919050565b7f566f746572206973206e6f742072656769737465726564000000000000000000600082015250565b600061182b6017836115dd565b9150611836826117f5565b602082019050919050565b6000602082019050818103600083015261185a8161181e565b9050919050565b7f566f74696e6720686173206e6f74207374617274656420796574000000000000600082015250565b6000611897601a836115dd565b91506118a282611861565b602082019050919050565b600060208201905081810360008301526118c68161188a565b9050919050565b7f566f74696e672068617320656e64656400000000000000000000000000000000600082015250565b60006119036010836115dd565b915061190e826118cd565b602082019050919050565b60006020820190508181036000830152611932816118f6565b9050919050565b7f566f74657220616c726561647920766f74656400000000000000000000000000600082015250565b600061196f6013836115dd565b915061197a82611939565b602082019050919050565b6000602082019050818103600083015261199e81611962565b9050919050565b7f496e76616c69642070726f706f73616c20696e64657800000000000000000000600082015250565b60006119db6016836115dd565b91506119e6826119a5565b602082019050919050565b60006020820190508181036000830152611a0a816119ce565b9050919050565b7f4e487b7100000000000000000000000000000000000000000000000000000000600052603260045260246000fd5b6000604082019050611a5560008301856115b3565b611a6260208301846110dc565b9392505050565b6000611a74826110d2565b9150611a7f836110d2565b9250828203905081811115611a9757611a9661177e565b5b92915050565b6000611aa8826110d2565b9150611ab3836110d2565b9250828201905080821115611acb57611aca61177e565b5b92915050565b7f4e487b7100000000000000000000000000000000000000000000000000000000600052604160045260246000fdfea26469706673582212208fef0b8cfb29d288599971d4c06e732c1700b750d36cd3c8b713f2e6b1339d6364736f6c634300081c0033",
  "linkReferences": {},
  "deployedLinkReferences": {}
}