{
  "_format": "hh-sol-artifact-1",
  "contractName": "DecentraVote",
  "sourceName": "contracts/DecentraVote.sol",
  "abi": [
    {
      "inputs": [
        {
          "internalType": "bytes32",
          "name": "_topic",
          "type": "bytes32"
        },
        {
          "internalType": "bytes32[]",
          "name": "proposalNames",
          "type": "bytes32[]"
        },
        {
          "internalType": "uint256",
          "name": "_votingStartTime",
          "type": "uint256"
        },
        {
          "internalType": "uint256",
          "name": "_votingEndTime",
          "type": "uint256"
        },
        {
          "internalType": "bytes32",
          "name": "_voterMerkleRoot",
          "type": "bytes32"
        }
      ],
      "stateMutability": "nonpayable",
      "type": "constructor"
    },
    {
      "inputs": [],
      "name": "ReentrancyGuardReentrantCall",
      "type": "error"
    },
    {
      "anonymous": false,
      "inputs": [
        {
          "indexed": false,
          "internalType": "bytes32",
          "name": "name",
          "type": "bytes32"
        }
      ],
      "name": "ProposalCreated",
      "type": "event"
    },
    {
      "anonymous": false,
      "inputs": [
        {
          "indexed": false,
          "internalType": "address",
          "name": "voter",
          "type": "address"
        },
        {
          "indexed": false,
          "internalType": "uint256",
          "name": "proposalIndex",
          "type": "uint256"
        }
      ],
      "name": "VoteCasted",
      "type": "event"
    },
    {
      "anonymous": false,
      "inputs": [
        {
          "indexed": false,
          "internalType": "address",
          "name": "voter",
          "type": "address"
        }
      ],
      "name": "VoterRegistered",
      "type": "event"
    },
    {
      "inputs": [
        {
          "internalType": "bytes32",
          "name": "_name",
          "type": "bytes32"
        }
      ],
      "name": "addProposal",
      "outputs": [],
      "stateMutability": "nonpayable",
      "type": "function"
    },
    {
      "inputs": [],
      "name": "admin",
      "outputs": [
        {
          "internalType": "address",
          "name": "",
          "type": "address"
        }
      ],
      "stateMutability": "view",
      "type": "function"
    },
    {
      "inputs": [
        {
          "internalType": "uint256",
          "name": "_proposalIndex",
          "type": "uint256"
        },
        {
          "internalType": "bytes32[]",
          "name": "merkleProof",
          "type": "bytes32[]"
        }
      ],
      "name": "castVote",
      "outputs": [],
      "stateMutability": "nonpayable",
      "type": "function"
    },
    {
      "inputs": [],
      "name": "getAllProposals",
      "outputs": [
        {
          "internalType": "bytes32[]",
          "name": "names",
          "type": "bytes32[]"
        },
        {
          "internalType": "uint256[]",
          "name": "voteCounts",
          "type": "uint256[]"
        }
      ],
      "stateMutability": "view",
      "type": "function"
    },
    {
      "inputs": [],
      "name": "getProposalCount",
      "outputs": [
        {
          "internalType": "uint256",
          "name": "",
          "type": "uint256"
        }
      ],
      "stateMutability": "view",
      "type": "function"
    },
    {
      "inputs": [],
      "name": "getTimeUntilVotingEnds",
      "outputs": [
        {
          "internalType": "uint256",
          "name": "",
          "type": "uint256"
        }
      ],
      "stateMutability": "view",
      "type": "function"
    },
    {
      "inputs": [],
      "name": "getTimeUntilVotingStarts",
      "outputs": [
        {
          "internalType": "uint256",
          "name": "",
          "type": "uint256"
        }
      ],
      "stateMutability": "view",
      "type": "function"
    },
    {
      "inputs": [
        {
          "internalType": "address",
          "name": "_voter",
          "type": "address"
        }
      ],
      "name": "getVoterInfo",
      "outputs": [
        {
          "internalType": "bool",
          "name": "hasVoted",
          "type": "bool"
        },
        {
          "internalType": "uint256",
          "name": "voteIndex",
          "type": "uint256"
        }
      ],
      "stateMutability": "view",
      "type": "function"
    },
    {
      "inputs": [],
      "name": "getVotingStats",
      "outputs": [
        {
          "internalType": "uint256",
          "name": "totalVotes",
          "type": "uint256"
        },
        {
          "internalType": "uint256",
          "name": "registeredVoters",
          "type": "uint256"
        },
        {
          "internalType": "bool",
          "name": "votingActive",
          "type": "bool"
        }
      ],
      "stateMutability": "view",
      "type": "function"
    },
    {
      "inputs": [],
      "name": "isVotingActive",
      "outputs": [
        {
          "internalType": "bool",
          "name": "",
          "type": "bool"
        }
      ],
      "stateMutability": "view",
      "type": "function"
    },
    {
      "inputs": [
        {
          "internalType": "uint256",
          "name": "",
          "type": "uint256"
        }
      ],
      "name": "proposals",
      "outputs": [
        {
          "internalType": "bytes32",
          "name": "name",
          "type": "bytes32"
        },
        {
          "internalType": "uint256",
          "name": "voteCount",
          "type": "uint256"
        }
      ],
      "stateMutability": "view",
      "type": "function"
    },
    {
      "inputs": [],
      "name": "topic",
      "outputs": [
        {
          "internalType": "bytes32",
          "name": "",
          "type": "bytes32"
        }
      ],
      "stateMutability": "view",
      "type": "function"
    },
    {
      "inputs": [],
      "name": "totalRegisteredVoters",
      "outputs": [
        {
          "internalType": "uint256",
          "name": "",
          "type": "uint256"
        }
      ],
      "stateMutability": "view",
      "type": "function"
    },
    {
      "inputs": [],
      "name": "voterMerkleRoot",
      "outputs": [
        {
          "internalType": "bytes32",
          "name": "",
          "type": "bytes32"
        }
      ],
      "stateMutability": "view",
      "type": "function"
    },
    {
      "inputs": [
        {
          "internalType": "address",
          "name": "",
          "type": "address"
        }
      ],
      "name": "voters",
      "outputs": [
        {
          "internalType": "bool",
          "name": "hasVoted",
          "type": "bool"
        },
        {
          "internalType": "uint256",
          "name": "voteIndex",
          "type": "uint256"
        }
      ],
      "stateMutability": "view",
      "type": "function"
    },
    {
      "inputs": [],
      "name": "votingEndTime",
      "outputs": [
        {
          "internalType": "uint256",
          "name": "",
          "type": "uint256"
        }
      ],
      "stateMutability": "view",
      "type": "function"
    },
    {
      "inputs": [],
      "name": "votingStartTime",
      "outputs": [
        {
          "internalType": "uint256",
          "name": "",
          "type": "uint256"
        }
      ],
      "stateMutability": "view",
      "type": "function"
    },
    {
      "inputs": [],
      "name": "winnerName",
      "outputs": [
        {
          "internalType": "bytes32",
          "name": "",
          "type": "bytes32"
        }
      ],
      "stateMutability": "view",
      "type": "function"
    },
    {
      "inputs": [],
      "name": "winningProposal",
      "outputs": [
        {
          "internalType": "uint256",
          "name": "winningIndex",
          "type": "uint256"
        }
      ],
      "stateMutability": "view",
      "type": "function"
    }
  ],
  "bytecode": "0x608060405234801561001057600080fd5b50604051611d1c380380611d1c83398181016040528101906100329190610398565b600160008190555082821161007c576040517f08c379a0000000000000000000000000000000000000000000000000000000008152600401610073906104b2565b60405180910390fd5b33600160006101000a81548173ffffffffffffffffffffffffffffffffffffffff021916908373ffffffffffffffffffffffffffffffffffffffff1602179055508460028190555082600381905550816004819055508060058190555060005b84518110156101b45760066040518060400160405280878481518110610105576101046104d2565b5b6020026020010151815260200160008152509080600181540180825580915050600190039060005260206000209060020201600090919091909150600082015181600001556020820151816001015550507f288a29bca04edb18fcdb2c76d6e3b03b8a137c85c70d1a4cb8aacfa868d6051085828151811061018a576101896104d2565b5b602002602001015160405161019f9190610510565b60405180910390a180806001019150506100dc565b50505050505061052b565b6000604051905090565b600080fd5b600080fd5b6000819050919050565b6101e6816101d3565b81146101f157600080fd5b50565b600081519050610203816101dd565b92915050565b600080fd5b6000601f19601f8301169050919050565b7f4e487b7100000000000000000000000000000000000000000000000000000000600052604160045260246000fd5b6102578261020e565b810181811067ffffffffffffffff821117156102765761027561021f565b5b80604052505050565b60006102896101bf565b9050610295828261024e565b919050565b600067ffffffffffffffff8211156102b5576102b461021f565b5b602082029050602081019050919050565b600080fd5b60006102de6102d98461029a565b61027f565b90508083825260208201905060208402830185811115610301576103006102c6565b5b835b8181101561032a578061031688826101f4565b845260208401935050602081019050610303565b5050509392505050565b600082601f83011261034957610348610209565b5b81516103598482602086016102cb565b91505092915050565b6000819050919050565b61037581610362565b811461038057600080fd5b50565b6000815190506103928161036c565b92915050565b600080600080600060a086880312156103b4576103b36101c9565b5b60006103c2888289016101f4565b955050602086015167ffffffffffffffff8111156103e3576103e26101ce565b5b6103ef88828901610334565b945050604061040088828901610383565b935050606061041188828901610383565b9250506080610422888289016101f4565b9150509295509295909350565b600082825260208201905092915050565b7f456e642074696d65206d7573742062652061667465722073746172742074696d60008201527f6500000000000000000000000000000000000000000000000000000000000000602082015250565b600061049c60218361042f565b91506104a782610440565b604082019050919050565b600060208201905081810360008301526104cb8161048f565b9050919050565b7f4e487b7100000000000000000000000000000000000000000000000000000000600052603260045260246000fd5b61050a816101d3565b82525050565b60006020820190506105256000830184610501565b92915050565b6117e28061053a6000396000f3fe608060405234801561001057600080fd5b50600436106101205760003560e01c8063609ff1bd116100ad578063bf63a57711610071578063bf63a57714610300578063c08cc02d1461031e578063cceb68f51461033c578063e2ba53f01461035b578063f851a4401461037957610120565b8063609ff1bd1461024257806376804a03146102605780639ed1f25514610280578063a3ec138d146102b1578063be5702f3146102e257610120565b80632019a608116100f45780632019a608146101ae5780632a69fb46146101cc57806347cf6f76146101ea5780635500133e146102085780635a4ea59e1461022457610120565b8062aa746414610125578063013cf08b1461014357806306efe3b0146101745780631ea736e014610190575b600080fd5b61012d610397565b60405161013a9190610d9c565b60405180910390f35b61015d60048036038101906101589190610ded565b61039d565b60405161016b929190610e33565b60405180910390f35b61018e60048036038101906101899190610e88565b6103d1565b005b610198610536565b6040516101a59190610d9c565b60405180910390f35b6101b661053c565b6040516101c39190610d9c565b60405180910390f35b6101d4610542565b6040516101e19190610eb5565b60405180910390f35b6101f2610548565b6040516101ff9190610eeb565b60405180910390f35b610222600480360381019061021d9190610f6b565b610563565b005b61022c6108ce565b6040516102399190610d9c565b60405180910390f35b61024a6108f6565b6040516102579190610d9c565b60405180910390f35b610268610978565b60405161027793929190610fcb565b60405180910390f35b61029a60048036038101906102959190611060565b6109eb565b6040516102a892919061108d565b60405180910390f35b6102cb60048036038101906102c69190611060565b610a75565b6040516102d992919061108d565b60405180910390f35b6102ea610aa6565b6040516102f79190610d9c565b60405180910390f35b610308610ace565b6040516103159190610eb5565b60405180910390f35b610326610ad4565b6040516103339190610d9c565b60405180910390f35b610344610ae1565b604051610352929190611232565b60405180910390f35b610363610c30565b6040516103709190610eb5565b60405180910390f35b610381610c64565b60405161038e9190611278565b60405180910390f35b60085481565b600681815481106103ad57600080fd5b90600052602060002090600202016000915090508060000154908060010154905082565b600160009054906101000a900473ffffffffffffffffffffffffffffffffffffffff1673ffffffffffffffffffffffffffffffffffffffff163373ffffffffffffffffffffffffffffffffffffffff1614610461576040517f08c379a000000000000000000000000000000000000000000000000000000000815260040161045890611316565b60405180910390fd5b60035442106104a5576040517f08c379a000000000000000000000000000000000000000000000000000000000815260040161049c906113a8565b60405180910390fd5b6006604051806040016040528083815260200160008152509080600181540180825580915050600190039060005260206000209060020201600090919091909150600082015181600001556020820151816001015550507f288a29bca04edb18fcdb2c76d6e3b03b8a137c85c70d1a4cb8aacfa868d605108160405161052b9190610eb5565b60405180910390a150565b60045481565b60035481565b60055481565b6000600354421015801561055e57506004544211155b905090565b6003544210156105a8576040517f08c379a000000000000000000000000000000000000000000000000000000000815260040161059f90611414565b60405180910390fd5b6004544211156105ed576040517f08c379a00000000000000000000000000000000000000000000000000000000081526004016105e490611480565b60405180910390fd5b6105f5610c8a565b6000336040516020016106089190611278565b6040516020818303038152906040528051906020012060405160200161062e91906114c1565b604051602081830303815290604052805190602001209050610694838380806020026020016040519081016040528093929190818152602001838360200280828437600081840152601f19601f8201169050808301925050505050505060055483610cd0565b6106d3576040517f08c379a00000000000000000000000000000000000000000000000000000000081526004016106ca9061154e565b60405180910390fd5b600760003373ffffffffffffffffffffffffffffffffffffffff1673ffffffffffffffffffffffffffffffffffffffff16815260200190815260200160002060000160009054906101000a900460ff1615610763576040517f08c379a000000000000000000000000000000000000000000000000000000000815260040161075a906115ba565b60405180910390fd5b60068054905084106107aa576040517f08c379a00000000000000000000000000000000000000000000000000000000081526004016107a190611626565b60405180910390fd5b6001600760003373ffffffffffffffffffffffffffffffffffffffff1673ffffffffffffffffffffffffffffffffffffffff16815260200190815260200160002060000160006101000a81548160ff02191690831515021790555083600760003373ffffffffffffffffffffffffffffffffffffffff1673ffffffffffffffffffffffffffffffffffffffff16815260200190815260200160002060010181905550600684815481106108605761085f611646565b5b90600052602060002090600202016001016000815480929190610882906116a4565b91905055507fd0e6c39f2e086dc49f1524b47725526a56945cd1ff661f37976f1725a1e5698633856040516108b89291906116ec565b60405180910390a1506108c9610ce7565b505050565b600060045442106108e257600090506108f3565b426004546108f09190611715565b90505b90565b6000806000905060005b60068054905081101561097357816006828154811061092257610921611646565b5b9060005260206000209060020201600101541115610966576006818154811061094e5761094d611646565b5b90600052602060002090600202016001015491508092505b8080600101915050610900565b505090565b6000806000806000905060005b6006805490508110156109d257600681815481106109a6576109a5611646565b5b906000526020600020906002020160010154826109c39190611749565b91508080600101915050610985565b50806008546109df610548565b93509350935050909192565b6000806000600760008573ffffffffffffffffffffffffffffffffffffffff1673ffffffffffffffffffffffffffffffffffffffff1681526020019081526020016000206040518060400160405290816000820160009054906101000a900460ff161515151581526020016001820154815250509050806000015181602001519250925050915091565b60076020528060005260406000206000915090508060000160009054906101000a900460ff16908060010154905082565b60006003544210610aba5760009050610acb565b42600354610ac89190611715565b90505b90565b60025481565b6000600680549050905090565b60608060068054905067ffffffffffffffff811115610b0357610b0261177d565b5b604051908082528060200260200182016040528015610b315781602001602082028036833780820191505090505b50915060068054905067ffffffffffffffff811115610b5357610b5261177d565b5b604051908082528060200260200182016040528015610b815781602001602082028036833780820191505090505b50905060005b600680549050811015610c2b5760068181548110610ba857610ba7611646565b5b906000526020600020906002020160000154838281518110610bcd57610bcc611646565b5b60200260200101818152505060068181548110610bed57610bec611646565b5b906000526020600020906002020160010154828281518110610c1257610c11611646565b5b6020026020010181815250508080600101915050610b87565b509091565b60006006610c3c6108f6565b81548110610c4d57610c4c611646565b5b906000526020600020906002020160000154905090565b600160009054906101000a900473ffffffffffffffffffffffffffffffffffffffff1681565b600260005403610cc6576040517f3ee5aeb500000000000000000000000000000000000000000000000000000000815260040160405180910390fd5b6002600081905550565b600082610cdd8584610cf1565b1490509392505050565b6001600081905550565b60008082905060005b8451811015610d3657610d2782868381518110610d1a57610d19611646565b5b6020026020010151610d41565b91508080600101915050610cfa565b508091505092915050565b6000818310610d5957610d548284610d6c565b610d64565b610d638383610d6c565b5b905092915050565b600082600052816020526040600020905092915050565b6000819050919050565b610d9681610d83565b82525050565b6000602082019050610db16000830184610d8d565b92915050565b600080fd5b600080fd5b610dca81610d83565b8114610dd557600080fd5b50565b600081359050610de781610dc1565b92915050565b600060208284031215610e0357610e02610db7565b5b6000610e1184828501610dd8565b91505092915050565b6000819050919050565b610e2d81610e1a565b82525050565b6000604082019050610e486000830185610e24565b610e556020830184610d8d565b9392505050565b610e6581610e1a565b8114610e7057600080fd5b50565b600081359050610e8281610e5c565b92915050565b600060208284031215610e9e57610e9d610db7565b5b6000610eac84828501610e73565b91505092915050565b6000602082019050610eca6000830184610e24565b92915050565b60008115159050919050565b610ee581610ed0565b82525050565b6000602082019050610f006000830184610edc565b92915050565b600080fd5b600080fd5b600080fd5b60008083601f840112610f2b57610f2a610f06565b5b8235905067ffffffffffffffff811115610f4857610f47610f0b565b5b602083019150836020820283011115610f6457610f63610f10565b5b9250929050565b600080600060408486031215610f8457610f83610db7565b5b6000610f9286828701610dd8565b935050602084013567ffffffffffffffff811115610fb357610fb2610dbc565b5b610fbf86828701610f15565b92509250509250925092565b6000606082019050610fe06000830186610d8d565b610fed6020830185610d8d565b610ffa6040830184610edc565b949350505050565b600073ffffffffffffffffffffffffffffffffffffffff82169050919050565b600061102d82611002565b9050919050565b61103d81611022565b811461104857600080fd5b50565b60008135905061105a81611034565b92915050565b60006020828403121561107657611075610db7565b5b60006110848482850161104b565b91505092915050565b60006040820190506110a26000830185610edc565b6110af6020830184610d8d565b9392505050565b600081519050919050565b600082825260208201905092915050565b6000819050602082019050919050565b6110eb81610e1a565b82525050565b60006110fd83836110e2565b60208301905092915050565b6000602082019050919050565b6000611121826110b6565b61112b81856110c1565b9350611136836110d2565b8060005b8381101561116757815161114e88826110f1565b975061115983611109565b92505060018101905061113a565b5085935050505092915050565b600081519050919050565b600082825260208201905092915050565b6000819050602082019050919050565b6111a981610d83565b82525050565b60006111bb83836111a0565b60208301905092915050565b6000602082019050919050565b60006111df82611174565b6111e9818561117f565b93506111f483611190565b8060005b8381101561122557815161120c88826111af565b9750611217836111c7565b9250506001810190506111f8565b5085935050505092915050565b6000604082019050818103600083015261124c8185611116565b9050818103602083015261126081846111d4565b90509392505050565b61127281611022565b82525050565b600060208201905061128d6000830184611269565b92915050565b600082825260208201905092915050565b7f4f6e6c792061646d696e2063616e2063616c6c20746869732066756e6374696f60008201527f6e00000000000000000000000000000000000000000000000000000000000000602082015250565b6000611300602183611293565b915061130b826112a4565b604082019050919050565b6000602082019050818103600083015261132f816112f3565b9050919050565b7f43616e6e6f74206164642070726f706f73616c20616674657220766f74696e6760008201527f2068617320737461727465640000000000000000000000000000000000000000602082015250565b6000611392602c83611293565b915061139d82611336565b604082019050919050565b600060208201905081810360008301526113c181611385565b9050919050565b7f566f74696e6720686173206e6f74207374617274656420796574000000000000600082015250565b60006113fe601a83611293565b9150611409826113c8565b602082019050919050565b6000602082019050818103600083015261142d816113f1565b9050919050565b7f566f74696e672068617320656e64656400000000000000000000000000000000600082015250565b600061146a601083611293565b915061147582611434565b602082019050919050565b600060208201905081810360008301526114998161145d565b9050919050565b6000819050919050565b6114bb6114b682610e1a565b6114a0565b82525050565b60006114cd82846114aa565b60208201915081905092915050565b7f496e76616c69642070726f6f662c20766f746572206e6f7420656c696769626c60008201527f6500000000000000000000000000000000000000000000000000000000000000602082015250565b6000611538602183611293565b9150611543826114dc565b604082019050919050565b600060208201905081810360008301526115678161152b565b9050919050565b7f566f74657220616c726561647920766f74656400000000000000000000000000600082015250565b60006115a4601383611293565b91506115af8261156e565b602082019050919050565b600060208201905081810360008301526115d381611597565b9050919050565b7f496e76616c69642070726f706f73616c20696e64657800000000000000000000600082015250565b6000611610601683611293565b915061161b826115da565b602082019050919050565b6000602082019050818103600083015261163f81611603565b9050919050565b7f4e487b7100000000000000000000000000000000000000000000000000000000600052603260045260246000fd5b7f4e487b7100000000000000000000000000000000000000000000000000000000600052601160045260246000fd5b60006116af82610d83565b91507fffffffffffffffffffffffffffffffffffffffffffffffffffffffffffffffff82036116e1576116e0611675565b5b600182019050919050565b60006040820190506117016000830185611269565b61170e6020830184610d8d565b9392505050565b600061172082610d83565b915061172b83610d83565b925082820390508181111561174357611742611675565b5b92915050565b600061175482610d83565b915061175f83610d83565b925082820190508082111561177757611776611675565b5b92915050565b7f4e487b7100000000000000000000000000000000000000000000000000000000600052604160045260246000fdfea2646970667358221220636eab7187ccd9c05ddae3d75263f3b58cd7baea95289d3dfdc1a9394252c0df64736f6c634300081c0033",
  "linkReferences": {},
  "deployedLinkReferences": {}
}