{
  "_format": "hh-sol-artifact-1",
  "contractName": "DecentraVote",
  "sourceName": "contracts/DecentraVote.sol",
  "abi": [
    {
      "inputs": [
        {
          "internalType": "bytes32",
          "name": "_topic",
          "type": "bytes32"
        },
        {
          "internalType": "bytes32[]",
          "name": "_proposalNames",
          "type": "bytes32[]"
        },
        {
          "internalType": "uint256",
          "name": "_votingStartTime",
          "type": "uint256"
        },
        {
          "internalType": "uint256",
          "name": "_votingEndTime",
          "type": "uint256"
        },
        {
          "internalType": "bytes32",
          "name": "_voterMerkleRoot",
          "type": "bytes32"
        }
      ],
      "stateMutability": "nonpayable",
      "type": "constructor"
    },
    {
      "inputs": [],
      "name": "EnforcedPause",
      "type": "error"
    },
    {
      "inputs": [],
      "name": "ExpectedPause",
      "type": "error"
    },
    {
      "inputs": [],
      "name": "ReentrancyGuardReentrantCall",
      "type": "error"
    },
    {
      "anonymous": false,
      "inputs": [
        {
          "indexed": false,
          "internalType": "bytes32",
          "name": "oldRoot",
          "type": "bytes32"
        },
        {
          "indexed": false,
          "internalType": "bytes32",
          "name": "newRoot",
          "type": "bytes32"
        }
      ],
      "name": "MerkleRootUpdated",
      "type": "event"
    },
    {
      "anonymous": false,
      "inputs": [
        {
          "indexed": false,
          "internalType": "address",
          "name": "account",
          "type": "address"
        }
      ],
      "name": "Paused",
      "type": "event"
    },
    {
      "anonymous": false,
      "inputs": [
        {
          "indexed": false,
          "internalType": "bytes32",
          "name": "name",
          "type": "bytes32"
        }
      ],
      "name": "ProposalCreated",
      "type": "event"
    },
    {
      "anonymous": false,
      "inputs": [
        {
          "indexed": false,
          "internalType": "uint256",
          "name": "index",
          "type": "uint256"
        },
        {
          "indexed": false,
          "internalType": "bytes32",
          "name": "removedName",
          "type": "bytes32"
        }
      ],
      "name": "ProposalRemoved",
      "type": "event"
    },
    {
      "anonymous": false,
      "inputs": [
        {
          "indexed": false,
          "internalType": "uint256",
          "name": "index",
          "type": "uint256"
        },
        {
          "indexed": false,
          "internalType": "bytes32",
          "name": "oldName",
          "type": "bytes32"
        },
        {
          "indexed": false,
          "internalType": "bytes32",
          "name": "newName",
          "type": "bytes32"
        }
      ],
      "name": "ProposalUpdated",
      "type": "event"
    },
    {
      "anonymous": false,
      "inputs": [
        {
          "indexed": false,
          "internalType": "address",
          "name": "account",
          "type": "address"
        }
      ],
      "name": "Unpaused",
      "type": "event"
    },
    {
      "anonymous": false,
      "inputs": [
        {
          "indexed": true,
          "internalType": "address",
          "name": "voter",
          "type": "address"
        },
        {
          "indexed": false,
          "internalType": "uint256",
          "name": "proposalIndex",
          "type": "uint256"
        }
      ],
      "name": "VoteCasted",
      "type": "event"
    },
    {
      "anonymous": false,
      "inputs": [
        {
          "indexed": false,
          "internalType": "uint256",
          "name": "newEndTime",
          "type": "uint256"
        }
      ],
      "name": "VotingEndedEarly",
      "type": "event"
    },
    {
      "anonymous": false,
      "inputs": [
        {
          "indexed": false,
          "internalType": "uint256",
          "name": "winningProposalIndex",
          "type": "uint256"
        }
      ],
      "name": "VotingFinalized",
      "type": "event"
    },
    {
      "inputs": [
        {
          "internalType": "bytes32",
          "name": "_name",
          "type": "bytes32"
        }
      ],
      "name": "addProposal",
      "outputs": [],
      "stateMutability": "nonpayable",
      "type": "function"
    },
    {
      "inputs": [],
      "name": "admin",
      "outputs": [
        {
          "internalType": "address",
          "name": "",
          "type": "address"
        }
      ],
      "stateMutability": "view",
      "type": "function"
    },
    {
      "inputs": [
        {
          "internalType": "uint256",
          "name": "_proposalIndex",
          "type": "uint256"
        },
        {
          "internalType": "bytes32[]",
          "name": "_merkleProof",
          "type": "bytes32[]"
        }
      ],
      "name": "castVote",
      "outputs": [],
      "stateMutability": "nonpayable",
      "type": "function"
    },
    {
      "inputs": [],
      "name": "finalizeVoting",
      "outputs": [],
      "stateMutability": "nonpayable",
      "type": "function"
    },
    {
      "inputs": [],
      "name": "finalizedWinningProposalIndex",
      "outputs": [
        {
          "internalType": "uint256",
          "name": "",
          "type": "uint256"
        }
      ],
      "stateMutability": "view",
      "type": "function"
    },
    {
      "inputs": [],
      "name": "getAllProposals",
      "outputs": [
        {
          "internalType": "bytes32[]",
          "name": "names",
          "type": "bytes32[]"
        },
        {
          "internalType": "uint256[]",
          "name": "voteCounts",
          "type": "uint256[]"
        }
      ],
      "stateMutability": "view",
      "type": "function"
    },
    {
      "inputs": [],
      "name": "getProposalCount",
      "outputs": [
        {
          "internalType": "uint256",
          "name": "",
          "type": "uint256"
        }
      ],
      "stateMutability": "view",
      "type": "function"
    },
    {
      "inputs": [],
      "name": "getTimeUntilVotingEnds",
      "outputs": [
        {
          "internalType": "uint256",
          "name": "",
          "type": "uint256"
        }
      ],
      "stateMutability": "view",
      "type": "function"
    },
    {
      "inputs": [],
      "name": "getTimeUntilVotingStarts",
      "outputs": [
        {
          "internalType": "uint256",
          "name": "",
          "type": "uint256"
        }
      ],
      "stateMutability": "view",
      "type": "function"
    },
    {
      "inputs": [
        {
          "internalType": "address",
          "name": "_voter",
          "type": "address"
        }
      ],
      "name": "getVoterInfo",
      "outputs": [
        {
          "internalType": "bool",
          "name": "hasVoted",
          "type": "bool"
        },
        {
          "internalType": "uint256",
          "name": "voteIndex",
          "type": "uint256"
        }
      ],
      "stateMutability": "view",
      "type": "function"
    },
    {
      "inputs": [],
      "name": "getVotingStats",
      "outputs": [
        {
          "internalType": "uint256",
          "name": "totalVotes",
          "type": "uint256"
        },
        {
          "internalType": "bool",
          "name": "currentlyActive",
          "type": "bool"
        }
      ],
      "stateMutability": "view",
      "type": "function"
    },
    {
      "inputs": [],
      "name": "getWinners",
      "outputs": [
        {
          "internalType": "uint256[]",
          "name": "",
          "type": "uint256[]"
        }
      ],
      "stateMutability": "view",
      "type": "function"
    },
    {
      "inputs": [],
      "name": "isVotingActive",
      "outputs": [
        {
          "internalType": "bool",
          "name": "",
          "type": "bool"
        }
      ],
      "stateMutability": "view",
      "type": "function"
    },
    {
      "inputs": [],
      "name": "pause",
      "outputs": [],
      "stateMutability": "nonpayable",
      "type": "function"
    },
    {
      "inputs": [],
      "name": "paused",
      "outputs": [
        {
          "internalType": "bool",
          "name": "",
          "type": "bool"
        }
      ],
      "stateMutability": "view",
      "type": "function"
    },
    {
      "inputs": [
        {
          "internalType": "uint256",
          "name": "",
          "type": "uint256"
        }
      ],
      "name": "proposals",
      "outputs": [
        {
          "internalType": "bytes32",
          "name": "name",
          "type": "bytes32"
        },
        {
          "internalType": "uint256",
          "name": "voteCount",
          "type": "uint256"
        }
      ],
      "stateMutability": "view",
      "type": "function"
    },
    {
      "inputs": [
        {
          "internalType": "uint256",
          "name": "_index",
          "type": "uint256"
        }
      ],
      "name": "removeProposal",
      "outputs": [],
      "stateMutability": "nonpayable",
      "type": "function"
    },
    {
      "inputs": [],
      "name": "topic",
      "outputs": [
        {
          "internalType": "bytes32",
          "name": "",
          "type": "bytes32"
        }
      ],
      "stateMutability": "view",
      "type": "function"
    },
    {
      "inputs": [],
      "name": "unpause",
      "outputs": [],
      "stateMutability": "nonpayable",
      "type": "function"
    },
    {
      "inputs": [
        {
          "internalType": "bytes32",
          "name": "_newRoot",
          "type": "bytes32"
        }
      ],
      "name": "updateMerkleRoot",
      "outputs": [],
      "stateMutability": "nonpayable",
      "type": "function"
    },
    {
      "inputs": [
        {
          "internalType": "uint256",
          "name": "_index",
          "type": "uint256"
        },
        {
          "internalType": "bytes32",
          "name": "_newName",
          "type": "bytes32"
        }
      ],
      "name": "updateProposalName",
      "outputs": [],
      "stateMutability": "nonpayable",
      "type": "function"
    },
    {
      "inputs": [],
      "name": "voterMerkleRoot",
      "outputs": [
        {
          "internalType": "bytes32",
          "name": "",
          "type": "bytes32"
        }
      ],
      "stateMutability": "view",
      "type": "function"
    },
    {
      "inputs": [
        {
          "internalType": "address",
          "name": "",
          "type": "address"
        }
      ],
      "name": "voters",
      "outputs": [
        {
          "internalType": "bool",
          "name": "hasVoted",
          "type": "bool"
        },
        {
          "internalType": "uint256",
          "name": "voteIndex",
          "type": "uint256"
        }
      ],
      "stateMutability": "view",
      "type": "function"
    },
    {
      "inputs": [],
      "name": "votingEndTime",
      "outputs": [
        {
          "internalType": "uint256",
          "name": "",
          "type": "uint256"
        }
      ],
      "stateMutability": "view",
      "type": "function"
    },
    {
      "inputs": [],
      "name": "votingFinalized",
      "outputs": [
        {
          "internalType": "bool",
          "name": "",
          "type": "bool"
        }
      ],
      "stateMutability": "view",
      "type": "function"
    },
    {
      "inputs": [],
      "name": "votingStartTime",
      "outputs": [
        {
          "internalType": "uint256",
          "name": "",
          "type": "uint256"
        }
      ],
      "stateMutability": "view",
      "type": "function"
    },
    {
      "inputs": [],
      "name": "winnerName",
      "outputs": [
        {
          "internalType": "bytes32",
          "name": "",
          "type": "bytes32"
        }
      ],
      "stateMutability": "view",
      "type": "function"
    },
    {
      "inputs": [],
      "name": "winningProposal",
      "outputs": [
        {
          "internalType": "uint256",
          "name": "",
          "type": "uint256"
        }
      ],
      "stateMutability": "view",
      "type": "function"
    }
  ],
  "bytecode": "0x608060405234801561001057600080fd5b50604051612c07380380612c07833981810160405281019061003291906103b3565b60016000819055506000600160006101000a81548160ff021916908315150217905550828211610097576040517f08c379a000000000000000000000000000000000000000000000000000000000815260040161008e906104cd565b60405180910390fd5b33600360006101000a81548173ffffffffffffffffffffffffffffffffffffffff021916908373ffffffffffffffffffffffffffffffffffffffff1602179055508460048190555082600581905550816006819055508060078190555060005b84518110156101cf57600860405180604001604052808784815181106101205761011f6104ed565b5b6020026020010151815260200160008152509080600181540180825580915050600190039060005260206000209060020201600090919091909150600082015181600001556020820151816001015550507f288a29bca04edb18fcdb2c76d6e3b03b8a137c85c70d1a4cb8aacfa868d605108582815181106101a5576101a46104ed565b5b60200260200101516040516101ba919061052b565b60405180910390a180806001019150506100f7565b505050505050610546565b6000604051905090565b600080fd5b600080fd5b6000819050919050565b610201816101ee565b811461020c57600080fd5b50565b60008151905061021e816101f8565b92915050565b600080fd5b6000601f19601f8301169050919050565b7f4e487b7100000000000000000000000000000000000000000000000000000000600052604160045260246000fd5b61027282610229565b810181811067ffffffffffffffff821117156102915761029061023a565b5b80604052505050565b60006102a46101da565b90506102b08282610269565b919050565b600067ffffffffffffffff8211156102d0576102cf61023a565b5b602082029050602081019050919050565b600080fd5b60006102f96102f4846102b5565b61029a565b9050808382526020820190506020840283018581111561031c5761031b6102e1565b5b835b818110156103455780610331888261020f565b84526020840193505060208101905061031e565b5050509392505050565b600082601f83011261036457610363610224565b5b81516103748482602086016102e6565b91505092915050565b6000819050919050565b6103908161037d565b811461039b57600080fd5b50565b6000815190506103ad81610387565b92915050565b600080600080600060a086880312156103cf576103ce6101e4565b5b60006103dd8882890161020f565b955050602086015167ffffffffffffffff8111156103fe576103fd6101e9565b5b61040a8882890161034f565b945050604061041b8882890161039e565b935050606061042c8882890161039e565b925050608061043d8882890161020f565b9150509295509295909350565b600082825260208201905092915050565b7f456e642074696d65206d7573742062652061667465722073746172742074696d60008201527f6500000000000000000000000000000000000000000000000000000000000000602082015250565b60006104b760218361044a565b91506104c28261045b565b604082019050919050565b600060208201905081810360008301526104e6816104aa565b9050919050565b7f4e487b7100000000000000000000000000000000000000000000000000000000600052603260045260246000fd5b610525816101ee565b82525050565b6000602082019050610540600083018461051c565b92915050565b6126b2806105556000396000f3fe608060405234801561001057600080fd5b50600436106101c45760003560e01c8063609ff1bd116100f9578063be5702f311610097578063cceb68f511610071578063cceb68f51461048d578063df15c37e146104ac578063e2ba53f0146104ca578063f851a440146104e8576101c4565b8063be5702f314610433578063bf63a57714610451578063c08cc02d1461046f576101c4565b80638456cb59116100d35780638456cb59146103a95780639ed1f255146103b3578063a3ec138d146103e4578063bb120a0814610415576101c4565b8063609ff1bd1461035057806376804a031461036e5780637f2b87d81461038d576101c4565b80633f4ba83a116101665780634ce4e6c7116101405780634ce4e6c7146102dc5780635500133e146102f85780635a4ea59e146103145780635c975abb14610332576101c4565b80633f4ba83a146102985780634783f0ef146102a257806347cf6f76146102be576101c4565b80632019a608116101a25780632019a608146102345780632260b98b146102525780632a69fb461461025c5780632e6ca2111461027a576101c4565b8063013cf08b146101c957806306efe3b0146101fa5780631ea736e014610216575b600080fd5b6101e360048036038101906101de9190611ad8565b610506565b6040516101f1929190611b2d565b60405180910390f35b610214600480360381019061020f9190611b82565b61053a565b005b61021e61069f565b60405161022b9190611baf565b60405180910390f35b61023c6106a5565b6040516102499190611baf565b60405180910390f35b61025a6106ab565b005b610264610839565b6040516102719190611bca565b60405180910390f35b61028261083f565b60405161028f9190611c00565b60405180910390f35b6102a0610850565b005b6102bc60048036038101906102b79190611b82565b6108ea565b005b6102c6610a09565b6040516102d39190611c00565b60405180910390f35b6102f660048036038101906102f19190611ad8565b610a57565b005b610312600480360381019061030d9190611c80565b610c8e565b005b61031c611066565b6040516103299190611baf565b60405180910390f35b61033a61108e565b6040516103479190611c00565b60405180910390f35b6103586110a5565b6040516103659190611baf565b60405180910390f35b6103766110d2565b604051610384929190611ce0565b60405180910390f35b6103a760048036038101906103a29190611d09565b611137565b005b6103b16112e6565b005b6103cd60048036038101906103c89190611da7565b611380565b6040516103db929190611dd4565b60405180910390f35b6103fe60048036038101906103f99190611da7565b61140a565b60405161040c929190611dd4565b60405180910390f35b61041d61143b565b60405161042a9190611baf565b60405180910390f35b61043b611441565b6040516104489190611baf565b60405180910390f35b610459611469565b6040516104669190611bca565b60405180910390f35b61047761146f565b6040516104849190611baf565b60405180910390f35b61049561147c565b6040516104a3929190611f79565b60405180910390f35b6104b46115cb565b6040516104c19190611fb0565b60405180910390f35b6104d2611775565b6040516104df9190611bca565b60405180910390f35b6104f06117a9565b6040516104fd9190611fe1565b60405180910390f35b6008818154811061051657600080fd5b90600052602060002090600202016000915090508060000154908060010154905082565b600360009054906101000a900473ffffffffffffffffffffffffffffffffffffffff1673ffffffffffffffffffffffffffffffffffffffff163373ffffffffffffffffffffffffffffffffffffffff16146105ca576040517f08c379a00000000000000000000000000000000000000000000000000000000081526004016105c190612059565b60405180910390fd5b600554421061060e576040517f08c379a0000000000000000000000000000000000000000000000000000000008152600401610605906120eb565b60405180910390fd5b6008604051806040016040528083815260200160008152509080600181540180825580915050600190039060005260206000209060020201600090919091909150600082015181600001556020820151816001015550507f288a29bca04edb18fcdb2c76d6e3b03b8a137c85c70d1a4cb8aacfa868d60510816040516106949190611bca565b60405180910390a150565b60065481565b60055481565b600360009054906101000a900473ffffffffffffffffffffffffffffffffffffffff1673ffffffffffffffffffffffffffffffffffffffff163373ffffffffffffffffffffffffffffffffffffffff161461073b576040517f08c379a000000000000000000000000000000000000000000000000000000000815260040161073290612059565b60405180910390fd5b60018054906101000a900460ff1615610789576040517f08c379a000000000000000000000000000000000000000000000000000000000815260040161078090612157565b60405180910390fd5b6006544210156107d257426006819055507f4424c04f9a74edd1a1ad8e85894074d8e0718e7e32d56e734b12116384535251426040516107c99190611baf565b60405180910390a15b60006107dc6117cf565b90508060028190555060018060016101000a81548160ff0219169083151502179055507f886c75dbb46b8e34257da373ac60898ecebd9682c7dfeb9c4d65383b92d5ff2d8160405161082e9190611baf565b60405180910390a150565b60075481565b60018054906101000a900460ff1681565b600360009054906101000a900473ffffffffffffffffffffffffffffffffffffffff1673ffffffffffffffffffffffffffffffffffffffff163373ffffffffffffffffffffffffffffffffffffffff16146108e0576040517f08c379a00000000000000000000000000000000000000000000000000000000081526004016108d790612059565b60405180910390fd5b6108e8611851565b565b600360009054906101000a900473ffffffffffffffffffffffffffffffffffffffff1673ffffffffffffffffffffffffffffffffffffffff163373ffffffffffffffffffffffffffffffffffffffff161461097a576040517f08c379a000000000000000000000000000000000000000000000000000000000815260040161097190612059565b60405180910390fd5b60055442106109be576040517f08c379a00000000000000000000000000000000000000000000000000000000081526004016109b5906120eb565b60405180910390fd5b60006007549050816007819055507ffd69edeceaf1d6832d935be1fba54ca93bf17e71520c6c9ffc08d6e9529f875781836040516109fd929190612177565b60405180910390a15050565b600060018054906101000a900460ff1615610a275760009050610a54565b610a2f61108e565b15610a3d5760009050610a54565b6005544210158015610a5157506006544211155b90505b90565b600360009054906101000a900473ffffffffffffffffffffffffffffffffffffffff1673ffffffffffffffffffffffffffffffffffffffff163373ffffffffffffffffffffffffffffffffffffffff1614610ae7576040517f08c379a0000000000000000000000000000000000000000000000000000000008152600401610ade90612059565b60405180910390fd5b6005544210610b2b576040517f08c379a0000000000000000000000000000000000000000000000000000000008152600401610b22906120eb565b60405180910390fd5b6008805490508110610b72576040517f08c379a0000000000000000000000000000000000000000000000000000000008152600401610b69906121ec565b60405180910390fd5b600060088281548110610b8857610b8761220c565b5b906000526020600020906002020160000154905060006001600880549050610bb0919061226a565b9050808314610c155760088181548110610bcd57610bcc61220c565b5b906000526020600020906002020160088481548110610bef57610bee61220c565b5b906000526020600020906002020160008201548160000155600182015481600101559050505b6008805480610c2757610c2661229e565b5b60019003818190600052602060002090600202016000808201600090556001820160009055505090557fe26d1bca8e34de163772d170700782522f97d30138c9d7c2649aa3bbfe9b3ee38383604051610c819291906122cd565b60405180910390a1505050565b60018054906101000a900460ff1615610cdc576040517f08c379a0000000000000000000000000000000000000000000000000000000008152600401610cd390612368565b60405180910390fd5b600554421015610d21576040517f08c379a0000000000000000000000000000000000000000000000000000000008152600401610d18906123d4565b60405180910390fd5b600654421115610d66576040517f08c379a0000000000000000000000000000000000000000000000000000000008152600401610d5d90612440565b60405180910390fd5b610d6e6118b4565b610d766118f5565b600033604051602001610d899190611fe1565b60405160208183030381529060405280519060200120604051602001610daf9190612481565b604051602081830303815290604052805190602001209050610e15838380806020026020016040519081016040528093929190818152602001838360200280828437600081840152601f19601f820116905080830192505050505050506007548361193b565b610e54576040517f08c379a0000000000000000000000000000000000000000000000000000000008152600401610e4b9061250e565b60405180910390fd5b600960003373ffffffffffffffffffffffffffffffffffffffff1673ffffffffffffffffffffffffffffffffffffffff16815260200190815260200160002060000160009054906101000a900460ff1615610ee4576040517f08c379a0000000000000000000000000000000000000000000000000000000008152600401610edb9061257a565b60405180910390fd5b6008805490508410610f2b576040517f08c379a0000000000000000000000000000000000000000000000000000000008152600401610f22906121ec565b60405180910390fd5b6001600960003373ffffffffffffffffffffffffffffffffffffffff1673ffffffffffffffffffffffffffffffffffffffff16815260200190815260200160002060000160006101000a81548160ff02191690831515021790555083600960003373ffffffffffffffffffffffffffffffffffffffff1673ffffffffffffffffffffffffffffffffffffffff16815260200190815260200160002060010181905550600160088581548110610fe357610fe261220c565b5b90600052602060002090600202016001016000828254611003919061259a565b925050819055503373ffffffffffffffffffffffffffffffffffffffff167fd0e6c39f2e086dc49f1524b47725526a56945cd1ff661f37976f1725a1e56986856040516110509190611baf565b60405180910390a250611061611952565b505050565b6000600654421061107a576000905061108b565b42600654611088919061226a565b90505b90565b6000600160009054906101000a900460ff16905090565b600060018054906101000a900460ff16156110c45760025490506110cf565b6110cc6117cf565b90505b90565b60008060005b60088054905081101561112557600881815481106110f9576110f861220c565b5b90600052602060002090600202016001015483611116919061259a565b925080806001019150506110d8565b508161112f610a09565b915091509091565b600360009054906101000a900473ffffffffffffffffffffffffffffffffffffffff1673ffffffffffffffffffffffffffffffffffffffff163373ffffffffffffffffffffffffffffffffffffffff16146111c7576040517f08c379a00000000000000000000000000000000000000000000000000000000081526004016111be90612059565b60405180910390fd5b600554421061120b576040517f08c379a0000000000000000000000000000000000000000000000000000000008152600401611202906120eb565b60405180910390fd5b6008805490508210611252576040517f08c379a0000000000000000000000000000000000000000000000000000000008152600401611249906121ec565b60405180910390fd5b6000600883815481106112685761126761220c565b5b906000526020600020906002020160000154905081600884815481106112915761129061220c565b5b9060005260206000209060020201600001819055507f80c06553b7934bb5f7ecafb0335ab164a9a54abe85edab95321b3175331368118382846040516112d9939291906125ce565b60405180910390a1505050565b600360009054906101000a900473ffffffffffffffffffffffffffffffffffffffff1673ffffffffffffffffffffffffffffffffffffffff163373ffffffffffffffffffffffffffffffffffffffff1614611376576040517f08c379a000000000000000000000000000000000000000000000000000000000815260040161136d90612059565b60405180910390fd5b61137e61195c565b565b6000806000600960008573ffffffffffffffffffffffffffffffffffffffff1673ffffffffffffffffffffffffffffffffffffffff1681526020019081526020016000206040518060400160405290816000820160009054906101000a900460ff161515151581526020016001820154815250509050806000015181602001519250925050915091565b60096020528060005260406000206000915090508060000160009054906101000a900460ff16908060010154905082565b60025481565b600060055442106114555760009050611466565b42600554611463919061226a565b90505b90565b60045481565b6000600880549050905090565b60608060088054905067ffffffffffffffff81111561149e5761149d612605565b5b6040519080825280602002602001820160405280156114cc5781602001602082028036833780820191505090505b50915060088054905067ffffffffffffffff8111156114ee576114ed612605565b5b60405190808252806020026020018201604052801561151c5781602001602082028036833780820191505090505b50905060005b6008805490508110156115c657600881815481106115435761154261220c565b5b9060005260206000209060020201600001548382815181106115685761156761220c565b5b602002602001018181525050600881815481106115885761158761220c565b5b9060005260206000209060020201600101548282815181106115ad576115ac61220c565b5b6020026020010181815250508080600101915050611522565b509091565b60606000805b6008805490508110156116415781600882815481106115f3576115f261220c565b5b9060005260206000209060020201600101541115611634576008818154811061161f5761161e61220c565b5b90600052602060002090600202016001015491505b80806001019150506115d1565b50600080600090505b60088054905081101561169f57826008828154811061166c5761166b61220c565b5b9060005260206000209060020201600101540361169257818061168e90612634565b9250505b808060010191505061164a565b5060008167ffffffffffffffff8111156116bc576116bb612605565b5b6040519080825280602002602001820160405280156116ea5781602001602082028036833780820191505090505b509050600080600090505b60088054905081101561176a5784600882815481106117175761171661220c565b5b9060005260206000209060020201600101540361175d57808383815181106117425761174161220c565b5b602002602001018181525050818061175990612634565b9250505b80806001019150506116f5565b508194505050505090565b600060086117816110a5565b815481106117925761179161220c565b5b906000526020600020906002020160000154905090565b600360009054906101000a900473ffffffffffffffffffffffffffffffffffffffff1681565b6000806000905060005b60088054905081101561184c5781600882815481106117fb576117fa61220c565b5b906000526020600020906002020160010154111561183f57600881815481106118275761182661220c565b5b90600052602060002090600202016001015491508092505b80806001019150506117d9565b505090565b6118596119be565b6000600160006101000a81548160ff0219169083151502179055507f5db9ee0a495bf2e6ff9c91a7834c1ba4fdd244a5e8aa4e537bd38aeae4b073aa61189d6119fe565b6040516118aa9190611fe1565b60405180910390a1565b6118bc61108e565b156118f3576040517fd93c066500000000000000000000000000000000000000000000000000000000815260040160405180910390fd5b565b600260005403611931576040517f3ee5aeb500000000000000000000000000000000000000000000000000000000815260040160405180910390fd5b6002600081905550565b6000826119488584611a06565b1490509392505050565b6001600081905550565b6119646118b4565b60018060006101000a81548160ff0219169083151502179055507f62e78cea01bee320cd4e420270b5ea74000d11b0c9f74754ebdbfc544b05a2586119a76119fe565b6040516119b49190611fe1565b60405180910390a1565b6119c661108e565b6119fc576040517f8dfc202b00000000000000000000000000000000000000000000000000000000815260040160405180910390fd5b565b600033905090565b60008082905060005b8451811015611a4b57611a3c82868381518110611a2f57611a2e61220c565b5b6020026020010151611a56565b91508080600101915050611a0f565b508091505092915050565b6000818310611a6e57611a698284611a81565b611a79565b611a788383611a81565b5b905092915050565b600082600052816020526040600020905092915050565b600080fd5b600080fd5b6000819050919050565b611ab581611aa2565b8114611ac057600080fd5b50565b600081359050611ad281611aac565b92915050565b600060208284031215611aee57611aed611a98565b5b6000611afc84828501611ac3565b91505092915050565b6000819050919050565b611b1881611b05565b82525050565b611b2781611aa2565b82525050565b6000604082019050611b426000830185611b0f565b611b4f6020830184611b1e565b9392505050565b611b5f81611b05565b8114611b6a57600080fd5b50565b600081359050611b7c81611b56565b92915050565b600060208284031215611b9857611b97611a98565b5b6000611ba684828501611b6d565b91505092915050565b6000602082019050611bc46000830184611b1e565b92915050565b6000602082019050611bdf6000830184611b0f565b92915050565b60008115159050919050565b611bfa81611be5565b82525050565b6000602082019050611c156000830184611bf1565b92915050565b600080fd5b600080fd5b600080fd5b60008083601f840112611c4057611c3f611c1b565b5b8235905067ffffffffffffffff811115611c5d57611c5c611c20565b5b602083019150836020820283011115611c7957611c78611c25565b5b9250929050565b600080600060408486031215611c9957611c98611a98565b5b6000611ca786828701611ac3565b935050602084013567ffffffffffffffff811115611cc857611cc7611a9d565b5b611cd486828701611c2a565b92509250509250925092565b6000604082019050611cf56000830185611b1e565b611d026020830184611bf1565b9392505050565b60008060408385031215611d2057611d1f611a98565b5b6000611d2e85828601611ac3565b9250506020611d3f85828601611b6d565b9150509250929050565b600073ffffffffffffffffffffffffffffffffffffffff82169050919050565b6000611d7482611d49565b9050919050565b611d8481611d69565b8114611d8f57600080fd5b50565b600081359050611da181611d7b565b92915050565b600060208284031215611dbd57611dbc611a98565b5b6000611dcb84828501611d92565b91505092915050565b6000604082019050611de96000830185611bf1565b611df66020830184611b1e565b9392505050565b600081519050919050565b600082825260208201905092915050565b6000819050602082019050919050565b611e3281611b05565b82525050565b6000611e448383611e29565b60208301905092915050565b6000602082019050919050565b6000611e6882611dfd565b611e728185611e08565b9350611e7d83611e19565b8060005b83811015611eae578151611e958882611e38565b9750611ea083611e50565b925050600181019050611e81565b5085935050505092915050565b600081519050919050565b600082825260208201905092915050565b6000819050602082019050919050565b611ef081611aa2565b82525050565b6000611f028383611ee7565b60208301905092915050565b6000602082019050919050565b6000611f2682611ebb565b611f308185611ec6565b9350611f3b83611ed7565b8060005b83811015611f6c578151611f538882611ef6565b9750611f5e83611f0e565b925050600181019050611f3f565b5085935050505092915050565b60006040820190508181036000830152611f938185611e5d565b90508181036020830152611fa78184611f1b565b90509392505050565b60006020820190508181036000830152611fca8184611f1b565b905092915050565b611fdb81611d69565b82525050565b6000602082019050611ff66000830184611fd2565b92915050565b600082825260208201905092915050565b7f4f6e6c792061646d696e2063616e2063616c6c20746869730000000000000000600082015250565b6000612043601883611ffc565b915061204e8261200d565b602082019050919050565b6000602082019050818103600083015261207281612036565b9050919050565b7f43616e6e6f74206d6f646966792070726f706f73616c7320616674657220766f60008201527f74696e6720737461727473000000000000000000000000000000000000000000602082015250565b60006120d5602b83611ffc565b91506120e082612079565b604082019050919050565b60006020820190508181036000830152612104816120c8565b9050919050565b7f416c72656164792066696e616c697a6564000000000000000000000000000000600082015250565b6000612141601183611ffc565b915061214c8261210b565b602082019050919050565b6000602082019050818103600083015261217081612134565b9050919050565b600060408201905061218c6000830185611b0f565b6121996020830184611b0f565b9392505050565b7f496e76616c69642070726f706f73616c20696e64657800000000000000000000600082015250565b60006121d6601683611ffc565b91506121e1826121a0565b602082019050919050565b60006020820190508181036000830152612205816121c9565b9050919050565b7f4e487b7100000000000000000000000000000000000000000000000000000000600052603260045260246000fd5b7f4e487b7100000000000000000000000000000000000000000000000000000000600052601160045260246000fd5b600061227582611aa2565b915061228083611aa2565b92508282039050818111156122985761229761223b565b5b92915050565b7f4e487b7100000000000000000000000000000000000000000000000000000000600052603160045260246000fd5b60006040820190506122e26000830185611b1e565b6122ef6020830184611b0f565b9392505050565b7f566f74696e672068617320616c7265616479206265656e2066696e616c697a6560008201527f6400000000000000000000000000000000000000000000000000000000000000602082015250565b6000612352602183611ffc565b915061235d826122f6565b604082019050919050565b6000602082019050818103600083015261238181612345565b9050919050565b7f566f74696e6720686173206e6f74207374617274656420796574000000000000600082015250565b60006123be601a83611ffc565b91506123c982612388565b602082019050919050565b600060208201905081810360008301526123ed816123b1565b9050919050565b7f566f74696e672068617320656e64656400000000000000000000000000000000600082015250565b600061242a601083611ffc565b9150612435826123f4565b602082019050919050565b600060208201905081810360008301526124598161241d565b9050919050565b6000819050919050565b61247b61247682611b05565b612460565b82525050565b600061248d828461246a565b60208201915081905092915050565b7f496e76616c69642070726f6f662c20766f746572206e6f7420656c696769626c60008201527f6500000000000000000000000000000000000000000000000000000000000000602082015250565b60006124f8602183611ffc565b91506125038261249c565b604082019050919050565b60006020820190508181036000830152612527816124eb565b9050919050565b7f566f74657220616c726561647920766f74656400000000000000000000000000600082015250565b6000612564601383611ffc565b915061256f8261252e565b602082019050919050565b6000602082019050818103600083015261259381612557565b9050919050565b60006125a582611aa2565b91506125b083611aa2565b92508282019050808211156125c8576125c761223b565b5b92915050565b60006060820190506125e36000830186611b1e565b6125f06020830185611b0f565b6125fd6040830184611b0f565b949350505050565b7f4e487b7100000000000000000000000000000000000000000000000000000000600052604160045260246000fd5b600061263f82611aa2565b91507fffffffffffffffffffffffffffffffffffffffffffffffffffffffffffffffff82036126715761267061223b565b5b60018201905091905056fea264697066735822122085d584505d0a2753ad74cd3715b4652957b72586aced41f6289cbdc54d20766c64736f6c634300081c0033",
  "linkReferences": {},
  "deployedLinkReferences": {}
}